:10000000701C0020454200004142000041420000B7
:100010004142000041420000414200000000000057
:10002000000000000000000000000000414200004D
:100030004142000000000000414200004142000037
:100040004142000041420000BD1F0000F11F0000BE
:100050004142000041420000414200004142000094
:10006000D91C0000ED1C0000011D00000D1D00004A
:100070003D4200003F420000D10B0000F10B0000A8
:1000800041420000414200008D0D0000BD0E000005
:100090004142000041420000414200004142000054
:1000A0004142000041420000414200004142000044
:1000B0004142000041420000414200004916000058
:1000C00082B00190019B5A1E0192002B01D0C046C4
:1000D000F8E702B070470000031C313BDBB20020A0
:1000E000352B01D8014AD05C7047C046CC90000047
:1000F000F0B50024C7B004ABDD1DDD4B2C701868D3
:10010000A04200D1FDE2211C802226A808F05CFF5D
:10011000211C102206A808F057FFD649D64A06A887
:1001200002F0E6FD06A808F09DFFD44B021C06A9CC
:10013000186805F07BF806A808F094FFD04B021C65
:1001400006A9186805F072F825AB1C1C0193CB4F6B
:10015000291C0122386805F055F8C94E0122306883
:10016000291C05F063F804AB07331B7826AA23711A
:1001700004239B1A02931B19052B08DD2378522BAD
:1001800005D16378442B02D1A378592B01D00134D7
:10019000DDE70021102206A808F016FFB549B94A8C
:1001A00006A802F0A5FD06A808F05CFF06A9021C3F
:1001B000386805F03BF806A808F054FF0024021C3C
:1001C00006A9306805F032F8019DAC4E04ABD91D8C
:1001D0000122306805F016F8A94F04ABD91D386824
:1001E000012205F023F804ABDB792B71052C2FDD00
:1001F0002B783C2B2CD1AB783E2B29D146AB1C194C
:10020000833C2078FFF768FF9F4B1860082800D1D7
:10021000B4E00021102206A808F0D6FE9B499C4AB3
:1002200006A802F065FD06A808F01CFF06A9021C3E
:10023000306804F0FBFF06A808F014FF8524021CB8
:1002400006A9386804F0F2FF04ABE418251C06E0A8
:1002500001340135B9E72B784F2B19D00135874E82
:1002600004ABD91D0122306804F0CCFF844F04ABED
:10027000D91D0122386804F0D9FF04ABDB7926AA26
:10028000EB7003239B1A03935B19032BE6DDE2E774
:100290006B784B2BE2D10021102206A808F094FEC7
:1002A0007C497D4A06A802F023FD06A808F0DAFE84
:1002B00006A9021C306804F0B9FF06A808F0D2FEB7
:1002C00006A9021C386804F0B1FF04AB6B4FDD1DBA
:1002D000291C0122386804F095FF694E291C3068FA
:1002E000012204F0A3FF2B78E370039B1B19032B5F
:1002F00005DD23784F2B02D163784B2B01D00134DD
:10030000E3E76648FFF7DCFE0021102206A808F0AC
:100310005BFE63495E4A06A802F0EAFC06A808F004
:10032000A1FE06A9021C386804F080FF06A808F0A8
:1003300099FE06A9021C306804F078FF019C04AB0A
:10034000DD1D4E4B291C1868012204F05BFF4C4B4D
:10035000291C1868012204F069FF2B782371029B85
:100360001B19052B08DD2378462B05D16378412B1B
:1003700002D1A378442B01D00134E0E70021102200
:1003800006A808F021FE3B49464A06A802F0B0FC48
:1003900006A808F067FE394B021C06A9186804F08D
:1003A00045FF06A808F05EFE0025354B021C06A995
:1003B000186804F03BFF019C304F04ABD91D0122AB
:1003C000386804F01FFF2E4E04ABD91D306801229F
:1003D00004F02CFF04ABDB792371052D2CDD237891
:1003E0003C2B29D1A3783E2B26D146AB5B19833B0E
:1003F0001878FFF771FE244B002458602A48FFF755
:100400005FFE0021102206A808F0DEFD1949274AE8
:1004100006A802F06DFC06A808F024FE06A9021C3E
:10042000386804F003FF06A808F01CFE06A9021CA9
:10043000306804F0FBFE07E001350134BCE7A21E82
:100440009B5C3E2B34D0013404AB0C4FDD1D291CCA
:100450000122386804F0D6FE094E01223068291CBA
:1004600004F0E4FE2A7826ABE254052CEBDDE6E747
:10047000000000203394000002910000CC05002011
:10048000C805002009910000DC0500201091000043
:10049000179100001E91000025910000A086010028
:1004A0002C91000033910000102700003A910000C9
:1004B0009548FFF705FE0021102206A808F084FDEC
:1004C0009249934A06A802F013FC06A808F0CAFD58
:1004D00006A9021C386804F0A9FE06A808F0C2FDAF
:1004E00006A9021C306804F0A1FE002404ABDD1D47
:1004F000884B291C1868012204F084FE864B291CB5
:100500001868012204F092FE2B7826A96354052C6A
:1005100003DDA31ECB5C3E2B01D00134E6E70023B4
:100520000133042BFCDDCA18901E00785228F7D145
:10053000501E00784C28F3D1C85C4128F0D1774B8D
:1005400010799178D875507919751876D079D17855
:100550009876107A147BD876907A59755877D07A35
:100560003A219877581CC477547B981CC477002490
:10057000D81CC177907B997559761977D977D27B3A
:10058000191DC877591D60480633DC77CA77FFF715
:1005900097FD211C102206A808F016FD6049614A4B
:1005A00006A802F0A5FB06A808F05CFD594B021C4A
:1005B00006A9186804F03AFE06A808F053FD564B49
:1005C000021C06A9186804F031FE04AB514EDC1D74
:1005D000211C0122306804F015FE4F4D01222868CD
:1005E000211C04F023FE2378019A1371029B9B18AF
:1005F000052B05DD13783C2B02D193783E2B03D0DD
:10060000019B01330193E0E73F48FFF759FD0021CB
:10061000102206A808F0D8FC4349444A06A802F074
:1006200067FB06A808F01EFD06A9021C306804F04E
:10063000FDFD06A808F016FD8524021C06A9286801
:1006400004F0F4FD04ABE418251C04AB314FDE1DAF
:10065000311C0122386804F0D5FD2F4B311C18687D
:10066000012204F0E3FD33780326EB7026ABF61A83
:100670007319042B05DD2B784F2B02D16B784B2B94
:1006800001D00135E1E72048FFF71AFD00211022D3
:1006900006A808F099FC264B2649274A06A802F02E
:1006A00027FB06A808F0DEFC06A9021C386804F047
:1006B000BDFD06A808F0D6FC174B021C06A9186859
:1006C00004F0B4FD04ABDD1D124B291C1868012297
:1006D00004F098FD104B291C1868012204F0A6FDB7
:1006E0002B78E3703319042B05DD23784F2B02D1CF
:1006F00063784B2B01D00134E4E700220F4B1A60E2
:10070000186847B0F0BDC0461027000033940000C1
:1007100041910000CC050020C805002038170020BA
:10072000489100004F910000569100005F91000039
:100730005817002066910000719100000000002011
:10074000F0B50024C5B002ABDE1D6C4B34701868E8
:100750000093431C00D1CFE0211C102204A808F014
:1007600033FC6749674A04A802F0C2FA04A808F0FB
:1007700079FC654F021C04A9386804F057FD04A8F1
:1007800008F070FC8525614B021C04A9186804F070
:100790004DFD02ABED185A4B01935B4B311C1868B1
:1007A000012204F02FFD594B311C1868012204F07E
:1007B0003DFD02AB07331B78EB70042C06DD2B7874
:1007C0004F2B05D16B784B2B02D107E0042C02D1C3
:1007D0006B783E2B02D001340135DEE70021102278
:1007E00004A808F0F1FB0199494A04A802F080FA34
:1007F00004A808F037FC04A9021C386804F016FDB0
:1008000004A808F02FFC23AD2C1C00273F4B021C32
:1008100004A9186804F00AFD3C4B01933A4B311CC3
:100820001868012204F0EEFC384B311C18680122D4
:1008300004F0FCFC02AB07331B782371052F09DDA4
:100840002378492B08D16378442B05D1A3784C2B0E
:1008500002D111E0032F0CDDA3783E2B0CD0052F25
:1008600007DD2278462A04D16278412A01D1442B3F
:1008700002D001370134D1E70021102204A808F08A
:10088000A3FB1F49234A04A802F032FA04A808F087
:10089000E9FB1D4C021C04A9206804F0C7FC04A855
:1008A00008F0E0FB194B021C04A9186804F0BEFC18
:1008B000311C0122206804F0A5FC019B311C186842
:1008C000012204F0B3FC02AB07331B782B7144AB5D
:1008D000EB1A8433052B08DD2B78522B05D16B786E
:1008E000442B02D1AB78592B01D00135E0E701232D
:1008F0000020009A5B42136045B0F0BD000000206C
:100900003394000078910000CC050020C805002039
:100910007F9100000291000070B58A1891421BD0AF
:100920000024022586690D4B2E4207D00C4E01345F
:10093000B44200D91D601D68022D05D104680C70F9
:100940001C68022C04D107E01D680135E9D1F5E7E8
:100950001B6801310133E1D1002070BD000000208F
:100960007F4A5D05F0B5C5B002ABDE1D0023324CF9
:1009700033702368002B5BD13048FFF7A1FB23685D
:10098000022B55D02368013352D02022002104A825
:1009900008F01AFB2A4904A808F05CFB04A808F038
:1009A00061FB284B021C04A9186804F03FFC0023DB
:1009B00023AD0193244B311C18680122FFF7ACFFD3
:1009C0002368204F022B02D02368013311D120224B
:1009D00004A8002108F0F8FA1C4904A808F03AFB22
:1009E00004A808F03FFB04A9021C386804F01EFCB0
:1009F0001EE03868311C012204F018FC33782B719A
:100A0000019B052B0BDD2B78432B08D16B784F2BEB
:100A100005D1AB784E2B02D14D3B236005E0019B05
:100A2000013501330193802BC4D12368012BA3D15D
:100A3000206845B0F0BDC04600000020102700002F
:100A4000AF910000C8050020CC050020CF91000028
:100A500010B58A1891420DD08023DB058469A40566
:100A600004D4013B002BF9D1012004E00B780131C3
:100A70000360EFE7002010BD13B5041C0091111CAA
:100A800003F072FF201C6946012203F0A5FF01223A
:100A9000236800201343236016BD37B5141C0D1CBA
:100AA0000122694603F090FF0098204028603EBD77
:100AB00010B5002802D001280ED01AE00E4C236891
:100AC000013316D00D4803F033FF0C4803F0A8FEA5
:100AD00001235B4223600CE0074C6368013308D0BC
:100AE000074803F025FF064803F09AFE01235B4206
:100AF00063600120404210BD04000020000003405C
:100B000000001340592370B5294CA0B06360433BEB
:100B100063607233061C636068460021802208F01F
:100B200053FA002E02D0012E1DD03AE0214D301C88
:100B30002B68002B37D0012B01D1FFF7B9FF8021A3
:100B40001D4A490393691D480B43936103F046FE18
:100B5000A0220020D205116C194B0B4019490B4300
:100B6000136428601FE00020124D6B6883421AD086
:100B7000012B02D1181CFFF79BFF80210E4A89032D
:100B8000936911480B43936103F028FEA0220020D3
:100B9000D205916B0A4B0B400C490B439363686081
:100BA00001E0012040420023636020B070BDC046D8
:100BB000FC00005004000020000200500000034030
:100BC0008888FFFF1111000000001340333300003C
:100BD0008021054B5A680A4205D05A680A435A6078
:100BE0000122024B1A60704700000340E405002018
:100BF0008021054B5A680A4205D05A680A435A6058
:100C00000122024B5A60704700001340E4050020A7
:100C1000F8B50E1C002802D001281CD037E01E4D6C
:100C2000041C2B68002B34D0A0227721D205536BF3
:100C30001A4F8B4366390B4353630123381C3B61C6
:100C400003F0C6FF381C311C03F07AFF381C03F098
:100C5000A7FF2C601DE000240F4D6B68A34218D045
:100C6000A022D205516B0E4B0E4F0B40882149013B
:100C70000B4353633861381C03F0AAFF381C311C46
:100C800003F05EFF381C03F08BFF6C6001E0012471
:100C90006442201CF8BDC0460C0000200000024049
:100CA000FF88FFFF0000124038B5002802D001285D
:100CB00009D012E00A4D2C68002C0ED1094803F02F
:100CC0006FFF2C6007E0064D6C68002C05D10648CC
:100CD00003F066FF6C60201C01E00120404238BD3B
:100CE0000C000020000002400000124070B50C4DC6
:100CF0000C4E2C1CB04200D01434D318E2600322F6
:100D000023610023524261602260A36001211A1C0A
:100D100003F004FF23680333FCD0206870BDC04695
:100D2000EC0500200000024070B50C4D0C4E2C1C50
:100D3000B04200D01434013BE260D218032361605A
:100D40002261012100225B422360A160131C03F099
:100D5000E5FE23680333FCD0206870BDEC0500205D
:100D60000000024013B56B46DC1DDA71221C012322
:100D7000FFF7DAFF207816BD13B501AC227063705F
:100D8000221C0223FFF7B2FF002016BD0122022120
:100D900070B5484C6368261C13436360A36865689C
:100DA0000D4004D06368033A0B4363607EE0082B78
:100DB00005D1414B5B685B00DBB2636157E0102BF0
:100DC00009D13D49496849000A43D2B262612268AB
:100DD000134323606CE0182B0DD11020364AD368E2
:100DE00019786161216801432160916800295FD110
:100DF0000133D3605CE0202B03D1201C111C2B1C81
:100E000033E0282B1DD12C4CA168012905D1301CC1
:100E10002A1C2B1C03F082FE0EE0E36821698B4242
:100E200004D25A1CE2601B78736105E0301C291C57
:100E30002B1C03F073FE25601022336813433360CC
:100E400036E0402B01D11C4A07E0502B12D11A4A40
:100E5000D368591CD16061691970D3681269201C6C
:100E600093429B41291C2A1C5B4203F057FE2368D6
:100E70001022ADE7582B0ED10F4E6369F168201C8C
:100E80000B702B1C291C03F049FE1022236813430E
:100E9000236035600CE0F82B06D1002105480122C3
:100EA0000B1C03F03BFE03E001225242024B1A608E
:100EB00070BDC04600000240EC0500200122022166
:100EC00070B5484C6368261C13436360A36865686B
:100ED0000D4004D06368033A0B4363607EE0082B47
:100EE00005D1414B9B695B00DBB2636157E0102B7E
:100EF00009D13D49896949000A43D2B26261226839
:100F0000134323606CE0182B0DD11020364A136A6E
:100F100019786161216801432160D16900295FD19D
:100F2000013313625CE0202B03D1201C111C2B1C0D
:100F300033E0282B1DD12C4CE169012905D1301C4F
:100F40002A1C2B1C03F0EAFD0EE0236A616A8B4227
:100F500004D25A1C22621B78736105E0301C291CE4
:100F60002B1C03F0DBFD65611022336813433360F3
:100F700036E0402B01D11C4A07E0502B12D11A4A0F
:100F8000136A591C116261691970136A526A201C34
:100F900093429B41291C2A1C5B4203F0BFFD23683E
:100FA0001022ADE7582B0ED10F4E6369316A201C19
:100FB0000B702B1C291C03F0B1FD10222368134376
:100FC000236075610CE0F82B06D100210548012251
:100FD0000B1C03F0A3FD03E001225242024B5A61B5
:100FE00070BDC04600001240EC050020104B10B54B
:100FF0005A6A0020D30319D4D404E40F93050134B2
:101000009B0F0221834206D04918012B03D00431E3
:10101000022B00D008313F231A40101C054B203012
:10102000584305F07DF8211C05F07AF810BDC04644
:1010300000020050001BB70007230E4A10B51169CB
:10104000141C0B4008D0012B08D0022B02D1FFF753
:10105000CDFF07E0032B04D0074803E08020000207
:1010600000E006480F23E1691940013105F058F806
:1010700010BDC04600020050001BB7001027000042
:1010800030B5114B114C002523600423012085B09D
:1010900002930F491C33039360600195FFF732FD03
:1010A00001A9206803F0E2FB082220680949C3680F
:1010B0009343C3602A1C03F0C9FC206803F062FC60
:1010C000281C05B030BDC0460000134018060020A3
:1010D00080841E0000093D0070B501256D4C236819
:1010E0001B682B4200D0D1E06B4A6C4B91686C4876
:1010F0000B409360FEF7E4FF032122686848D36841
:101100008B432B43D360FEF7DBFF2068AE21082220
:10111000FFF7B2FC20680368DB07FCD4D521082266
:10112000FFF7AAFC20680368DB07FCD480210822B3
:10113000FFF7A2FC20680368DB07FCD4A821082283
:10114000FFF79AFC20680368DB07FCD43F210822E4
:10115000FFF792FC20680368DB07FCD4D321082248
:10116000FFF78AFC2068012301681940FBD108229F
:10117000FFF782FC20680368DB07FCD440210822CB
:10118000FFF77AFC20680368DB07FCD4A121082262
:10119000FFF772FC20680368DB07FCD4C821082233
:1011A000FFF76AFC20680368DB07FCD4DA21082219
:1011B000FFF762FC20680368DB07FCD412210822D9
:1011C000FFF75AFC20680368DB07FCD48121082262
:1011D000FFF752FC20680368DB07FCD4CF2108220C
:1011E000FFF74AFC20680368DB07FCD4D9210822FA
:1011F000FFF742FC20680368DB07FCD4F1210822DA
:10120000FFF73AFC234C20680368DB07FCD4DB21A2
:101210000822FFF731FC20680368DB07FCD440217B
:101220000822FFF729FC20680368DB07FCD4A4210F
:101230000822FFF721FC20680368DB07FCD4A62105
:101240000822FFF719FC20680368DB07FCD4202183
:101250000822FFF711FC2068012301681940FBD127
:101260000822FFF709FC236801261D683540FBD1E1
:101270000B48FEF725FF2268281CD368B343D360D0
:10128000054A064B91680B40936001E00120404203
:1012900070BDC0461806002000400050FFEFFFFF61
:1012A0005E1D0000032270B5154C164EA368164D46
:1012B00030682B40A360C3688D219343023A1343E7
:1012C000C3600732FFF7D8FB30680368DB07FCD444
:1012D00014210822FFF7D0FB30680368DB07FCD439
:1012E000AF210822FFF7C8FB3368012118680840C6
:1012F000FBD1DA688A43DA60A3681D40A56070BD3F
:101300000040005018060020FFEFFFFF032270B5D9
:10131000154C164EA368164D30682B40A360C36869
:10132000AE219343023A1343C3600732FFF7A4FB95
:1013300030680368DB07FCD48D210822FFF79CFB93
:1013400030680368DB07FCD410210822FFF794FB08
:101350003368012118680840FBD1DA688A43DA60F3
:10136000A3681D40A56070BD004000501806002015
:10137000FFEFFFFF032270B52E4C2F4EA3682F4DB9
:1013800030682B40A360C36821219343023A134382
:10139000C3600732FFF770FB306801230168194012
:1013A000FBD10822FFF768FB30680368DB07FCD439
:1013B0007F210822FFF760FB30680368DB07FCD45D
:1013C00022210822FFF758FB3068012301681940E9
:1013D000FBD10822FFF750FB30680368DB07FCD421
:1013E00007210822FFF748FB33681A68D207FCD4AC
:1013F00080218020A26849010A43A260C000F82130
:101400001A688A43B8390A431A6000221A621A68B5
:101410003F390A431A6001211A680A42FBD1013898
:101420000028ECD1DA688A43DA60A3681D40A56021
:1014300070BDC0460040005018060020FFEFFFFFBF
:10144000F0B5171C03223A4D85B00393394CAB68B5
:10145000394E0190334020680291AB60C36820216F
:101460009343023A1343C3600732FFF705FB20683A
:10147000012301681940FBD10822FFF7FDFA20681B
:101480000368DB07FCD421210822FFF7F5FA206866
:101490000368DB07FCD4391C0822FFF7EDFA20684B
:1014A0000368DB07FCD403990822FFF7E5FA2068FC
:1014B0000368DB07FCD422210822FFF7DDFA20684D
:1014C0000368DB07FCD40A990822FFF7D5FA2068E5
:1014D0000368DB07FCD40B990822FFF7CDFA2368D9
:1014E0001A68D207FCD48021AA6849010A43AA607D
:1014F0000299019A5018824210D0F8241968A14329
:10150000B83C2143196011783F3C196219682143A6
:1015100019601968C907FCD40132ECE701210020E9
:10152000DA688A43DA60AB681E40AE6005B0F0BD91
:101530000040005018060020FFEFFFFF10B58AB0F2
:1015400001AC00212422201C07F03EFD0321174B93
:101550001A680A431A600322D9680A40032AFAD19A
:1015600003F050FC124B201C1A1C48321288E26116
:101570001A1C4A321278A2611A1C4B32127862612C
:101580001A1C50321278E2601A1C5132127852330F
:10159000A2601B78636005232361043B237003F082
:1015A00053FC431E984140420AB010BD0002005057
:1015B0003817002008B5002003F070FD022003F06A
:1015C00083FD002008BD000000B58DB003A803F026
:1015D000E1FC1A4B089A191C4B310978914202D050
:1015E0000120174908700A9968460191191C8088E2
:1015F00048310880099968460191191C00794A31DF
:101600000870191C4B310A70069A694601921A1C1F
:10161000097950321170059A694601921A1C0979AC
:1016200051321170049A5233D2B21A70002A02D188
:10163000044B01321A700DB000BDC04638170020AF
:101640003806002030060020022208B5054B996AB2
:10165000114205D0D96A114202D0DA62FFF7B4FF15
:1016600008BDC0460080004010B5C4692243012473
:101670008C40C2618269A243134304228361014BFF
:101680001A6010BD00E100E010B5C46922430124D6
:101690008C40C2618269A243134308228361014BDB
:1016A0001A6010BD00E100E070B50F4D0F4CA8426C
:1016B00002D1A56804260DE00D4DA84202D1A5680F
:1016C000082607E00B4DA84202D1A568102601E0CC
:1016D0002026A5683543A5600024046033340461E6
:1016E00041608260036070BD000001400002005054
:1016F0000001014000001140022303600223026840
:101700001340FBD11449C360144A154B884206D1DB
:10171000042099688143996080235B0019E0114996
:10172000884206D1082099688143996080239B00F4
:101730000FE00D49884206D11020996881439960D5
:101740008023DB0005E02020996881439960802395
:101750001B01D3677047C0460000014004E100E070
:1017600000020050000101400000114003690D4AD1
:101770000361C3681943C1600B4B904202D18022C0
:1017800052000DE0094A904202D18022920007E007
:10179000074A904202D18022D20001E08022120149
:1017A0001A6070470000014000E100E000010140C4
:1017B00000001140C3688B43C360C368002B15D180
:1017C0000B4A0C4B904202D1802252000DE00A4A93
:1017D000904202D18022920007E0084A904202D152
:1017E0008022D20001E080221201DA677047C046F1
:1017F0000000014004E100E0000101400000114050
:1018000008B501F09FF800F06BFF002008BD000054
:1018100010B500291CDD0024231C03281AD80A1C3B
:1018200004F06AFC02070B0D0B4B0C481C601C718A
:1018300008E0094B0A489C6004E00A4802E0064BB5
:101840000948DC6010230B21FFF72EFF002301E085
:1018500001235B42181C10BD20060020000001403F
:10186000000101400000114000011140F8B50328BB
:1018700038D81D4D012404F03FFC02202629002405
:1018800001261A4F1A4B3C747C611C60194B211CB9
:101890001C2219481C6007F097FB211C20221748C6
:1018A00007F092FB2E603C71154C311C201CFFF799
:1018B0005DFF21683143216014E000220B4B6C6016
:1018C0009A60104D07E0AC600F4D04E00022074B1A
:1018D000EC600E4DDA60281C0121FFF747FF2B68F2
:1018E0001C432C600020F8BD1800002020060020BA
:1018F000580B0020180B00203C0B00201C0B002074
:1019000000000140000101400000114000011140B1
:1019100008B5032817D801220C4B524204F0ECFB07
:1019200002080B0E1A600022094B0A481A7107E0E0
:101930005A60094804E09A60084801E00848DA6003
:101940000121FFF737FF002008BDC0461800002026
:10195000200600200000014000010140000011406D
:1019600000011140F0B5784C784D23689BB00133ED
:10197000281C236002F0D8FB286803F063F903F009
:101980009DF96A46C3B20493127C714B68681A7061
:10199000A968EA6800F09CFC00F056FD6D4B626996
:1019A00018606D4B52331B789A422CD063616B4B9D
:1019B0006B481A68920016586A4A1168891B1160B0
:1019C000296916687118116019682D6989000D5010
:1019D0001968654D013119600721186801401960C7
:1019E0001068624BC008984201DD642303E0604B3D
:1019F000984202DC00232B6005E05E4B0521C018F5
:101A000004F01EFC2860207CC3B2012B77D1002596
:101A10002574227EAA4225D0574E1C24371C383705
:101A20003878291C013018406B463870D8756043EF
:101A30000C22801907F0C8FA6B464749D87D0B1C69
:101A400048331A880B1C60434B3109784A331B78A2
:101A500080190091494901F04BF93B785C433619F4
:101A60007561B5613C4B444C1A1C513350321178AE
:101A70001A783C235943251C89181C2238352B78A9
:101A80003F4E5343103A101C4843E3185961DB683A
:101A90009446C0187F236A460B403A4F33805E005D
:101AA000F1533949177C09680B623849CF543849DA
:101AB0009F0009680B62274909680791079A354911
:101AC0007A503549624609680B6234490F883449B7
:101AD0007752344909680B62334B34491B8873527F
:101AE00007A98B801A4BCF801B780B7200F0A8FFE0
:101AF0001C222B785343E418A3690133A3612C4BB8
:101B0000114C1B68012B1AD1002114220AA807F0DE
:101B10005BFA0E4922684B688D68C8680968D2B2C2
:101B200001900291009523490AA801F0E1F80AA862
:101B300007F098FA0AA9021C1F48FEF789FF012343
:101B4000002023711BB0F0BD200600203C0B0020BC
:101B5000380A00203C0A002038170020180B00200B
:101B60001C0B0020580B0020440A00203C0F0000F2
:101B7000470D0000B8F2FFFF8C100020F09100002C
:101B8000480A0020C8100020280A00209C0F0020CE
:101B9000300A00209C0D00202C0A0020400A002062
:101BA00000160020340A00203A0A0020001200200B
:101BB00000000020FF9100000000154010B590B01B
:101BC00040226846002107F0FFF9154C154BA2682A
:101BD0001B699A4216D31449684607F03BFA6846D7
:101BE00007F040FA011C684602F01CFB0023A360CA
:101BF000E361FFF78BFB0120FFF78AFE0B48FFF73D
:101C00007BFD07E00A4B1B68012B01D10023A36079
:101C100001F0A8FF0020A3680133A36010B010BD3D
:101C200020060020180000201C9200000001014046
:101C30000000002030B591B040226846002107F036
:101C4000C3F91D4C1D4BE2681B691D4D9A4218D308
:101C50001C49684607F0FEF9684607F003FA011CC4
:101C6000684602F0DFFA022317482B60FEF728FAD5
:101C7000FEF766FD0320FFF74BFE1448FFF73CFD1F
:101C800014E02B68012B05D1114B1B68082B01D1E7
:101C90000023E3600F49E268684601F029F86846CE
:101CA00007F0E0F9011C684602F0BCFA0020E36886
:101CB0000133E36011B030BD200600201800002081
:101CC0000000002035920000409C000000011140FF
:101CD000900100204A920000032208B5024B1A61CD
:101CE000FFF740FE08BDC04600000140032208B5D2
:101CF000024B1A61FFF762FF08BDC04600010140B8
:101D00000322014B1A61704700001140032208B5FD
:101D1000024B1A61FFF78EFF08BDC046000111405B
:101D200008B500F0D7FC08BD70470000012110B5D0
:101D300020240D4B1A680A431A601A68FF312243A7
:101D40001A600A4A5069084350611968002021430B
:101D500019608021536909020B435361044B1A68CF
:101D6000044B1A6010BDC0468041005040400050F6
:101D7000200600204406002038B5A0240722E405F0
:101D8000E36B0F4D9343043A1343281CE36308218C
:101D9000FD320023FFF768FCE26B0A4B281C13405E
:101DA0008022520513438022E3630F211202002395
:101DB000FFF76AFC044B00201A68044B1A6038BD18
:101DC00040400050FFFFFF8F200600204406002007
:101DD00030B591B068460021402207F0F5F8634B1A
:101DE0001B68013311D16249684607F033F9684630
:101DF00007F038F9011C684602F014FA01205D4929
:101E0000FFF706FD0120FFF731FD00214022684663
:101E100007F0DAF80022584B1A6001F07FFF574CA8
:101E20002368002B03D1FFF73DFA01232360544BB5
:101E3000544C5B68012B02D12368013306E0236810
:101E4000013B23602368013301D10823236020680C
:101E5000092104F0EBF921602068002508286ED8DC
:101E6000494D04F049F9050E172029323B444B0037
:101E70006846464907F0EEF83C232B6001F044FD2C
:101E80005CE06846424907F0E5F83C232B6001F02E
:101E900067FD53E068463F4907F0DCF83C232B60C0
:101EA00001F052FD4AE068463B4907F0D3F83C2375
:101EB0002B6001F061FD41E06846384907F0CAF83F
:101EC0003C232B6001F07AFD38E06846344907F086
:101ED000C1F878232B6001F093FD2FE0684631496B
:101EE00007F0B8F83C232B6001F0ACFD26E0684613
:101EF0002D4907F0AFF83C232B601FE03C232B60FB
:101F000001F0C2FD294B1B68013313D128496846F3
:101F100007F0A0F8684607F0A5F8011C684602F033
:101F200081F9FEF7E5F803201249FFF771FC032061
:101F3000FFF79CFC68461F4907F08CF8012501F06B
:101F400011FE012D06D1684607F08CF8011C684689
:101F500002F068F92368082B04D00B4B164A1B6863
:101F60009B001360002011B030BDC0461C00002053
:101F70005F92000040420F00280600203C0600202F
:101F80004406002090010020280000208A920000D2
:101F9000A8920000C6920000E492000002930000A4
:101FA000209300003E9300005D9300002400002079
:101FB0007F930000A69300002C060020802208B525
:101FC000084B52001A62084BFF3A08495A600A68E7
:101FD0001868121A102A03D90A681A60FFF7F8FE67
:101FE00008BDC046404000504406002020060020A6
:101FF000802208B5084B12021A620022074B0849DA
:102000005A600A681868121A102A03D90A681A60F6
:10201000FFF7DEFE08BDC0464040005044060020E9
:102020002006002010B5054C05492068FEF7F0FD9C
:102030002068FEF739FE002010BDC04614060020BF
:10204000A0860100094B10B51868FEF72DFE084C5C
:102050001921206820224723FEF78EFE20681921CF
:1020600023220023FEF788FE002010BD1406002066
:102070001400002037B5A8236A461370154B1921A8
:1020800018680623FEF750FE7F22134B6D46186832
:102090002D78C36A01331A40104B51001C686B46FF
:1020A0005B781B022B4363520D4B6D461C686B46DD
:1020B000DB78AD781B022B4363520A4B6D461C68DC
:1020C0006B465B792D791B022B436352C262002061
:1020D0003EBDC04614000020300A00201C0A00202B
:1020E000200A0020240A002010B590B0FFF718FE47
:1020F000FFF71AFEFFF784FB03F0ACF802F054F888
:10210000FFF714FE01F0F8FF4B490020FFF780FBBA
:102110004A490120FFF77CFBFFF710FA402200211B
:10212000684606F051FF4649684606F093FF684648
:1021300006F098FF011C684602F074F80021402266
:10214000684606F041FF3F4A3F49684600F0D0FD2F
:10215000684606F087FF8024011C684602F062F89A
:10216000FDF7C6FFFEF7ECFA02F08EF802F012F966
:1021700002F038FAE401201C02F0F6F93348FDF7CA
:102180009FFF80235B01E41890231B029C42F2D145
:1021900002F0A6FAFEF774FFFEF79EFFFFF7EAF8DB
:1021A000FFF780F802F026FD02F026FD01F0BCFDED
:1021B00001F018FEFFF736FFFFF744FF02F026FD9F
:1021C00000F050F8FFF7F6F90020FFF74FFB012071
:1021D000FFF74CFBFFF7D0FD00221D4B1A601D4B93
:1021E0001A78002A03D11C48FDF76AFFF7E700229E
:1021F0001A701A4B1A681C1C002A16D12368022B6D
:1022000006D02368013303D0FEF7ACFB0128F5D1DB
:102210002368022B06D02368013303D01048FDF752
:102220004FFFF5E701F0EAFDD9E702221A6001F05D
:1022300043FEFFF71FFFD2E7204E000040420F0091
:10224000C9930000FB930000E493000022420000C9
:102250009001002024060020ED0200000000002074
:10226000421D00000023184A0021101C1430195090
:10227000101C2830995019500433142BF3D1101C22
:1022800000233C300B50101C50300B50101C64309D
:102290000B5004311429F2D1111DCB67111C936727
:1022A000D36788321360094A0831CB67D360136162
:1022B00053619361111C00201C315850C821043314
:1022C00089008B42F6D170474C060020CC060020D6
:1022D0000023F7B55A4CE5186D681D51251C1435BF
:1022E000EE1876685E51251C2835EE1876685E512A
:1022F00004330C2BEED1534BDB6B0193C72B02DC69
:102300000022111C101C002320611D1C1E1C181C07
:102310006162A263E2588018221C14329A58B618DF
:10232000221C28329A580433AD18142BF2D10028FD
:1023300001DD053000E005384010052103F080FF85
:10234000071C701D002E00DC701F4010052103F0DB
:1023500077FF061C681D002D00DC681F401005215A
:1023600003F06EFF0023221C3C32D11849689950BB
:10237000221C5032D11849689950221C6432D1185D
:102380004968995004330C2BEDD100232666606711
:102390001D1C1E1C181CE764221C3C329A58801815
:1023A000221C50329A58B618221C64329A580433B0
:1023B000AD18142BF0D1002801DD053000E0053800
:1023C0004010052103F03CFF071C701D002E00DCAF
:1023D000701F4010052103F033FF061C681D002DFF
:1023E00000DC681F4010052103F02AFFE36FA3679C
:1023F000231DDA6FE267221C0832D26FDA67231CD2
:10240000FA17BF185740F217B6185640C21780186F
:10241000BF1950408833381818600023181C221C3C
:1024200078329A5804338018142BF8D1019B054A4E
:1024300001330530D3630521401003F001FFFEBDD9
:102440004C060020CC090020F0B585B001904E4824
:10245000019B016C01248B4202DC00DB00246442FE
:102460004A4A1569D3685B1955695B1995695B1907
:1024700004335D10DB179B0F5D190023AD10009333
:10248000161C1C369E59009F0433BE190096C826A0
:10249000B600B342F4D1426C3D4B524294420CD14F
:1024A000002C04DA1A68914207DD196005E0002C5F
:1024B00003DD5A68914200DA59601E685B68F61ABB
:1024C000301C06F03DFC02900391281C06F038FCFD
:1024D000304A314B05F0EAFD021C0B1C02980399AF
:1024E00003F0CAFF284D2D4F00282CD00098C8219A
:1024F000C830401003F0A4FE05235843864222DD75
:102500003B68AA6C9B1A1E2B1DD9EB6C0133EB6444
:102510001E4B1A699E61DA605A691A6100231B4AD0
:10252000111C1C31C81840685850C621043389005A
:102530008B42F4D1CE239B00D6501949144B194A33
:1025400006C33B68AB643B68AA6C9B1AC82B13D9C3
:102550000E4B1A699E61DA605A691A610022191CD1
:102560001C31881840685050C621043289008A42C4
:10257000F5D1CE2292009E50019B2B64002C00D0FE
:102580006C64E86C05B0F0BDCC090020CC060020DE
:102590002C000020333333333333F33F2006002045
:1025A00000F0FFFFFF0F0000A0227721D205936B00
:1025B0008B4366390B4380219363094B49029A6828
:1025C0000A439A60D969074A0A400321DA615A69C5
:1025D0008A435A616722044B5A6299607047C04629
:1025E00000020050FFF0FFFF00000540104B10B547
:1025F0005A6A0020D30319D4D404E40F930501349C
:102600009B0F0221834206D04918012B03D00431CD
:10261000022B00D008313F231A40101C054B2030FC
:10262000584303F07DFD211C03F07AFD10BDC04628
:1026300000020050001BB70007230E4A10B51169B5
:10264000141C0B4008D0012B08D0022B02D1FFF73D
:10265000CDFF07E0032B04D0074803E080200002F1
:1026600000E006480F23E1691940013103F058FDED
:1026700010BDC04600020050001BB700102700002C
:1026800008B5FFF7D9FF014B186008BD34000020E2
:10269000F8B559261625882403200C4B0C4A5E6099
:1026A0005D605C6011680F27014300201160586075
:1026B000D169B943D1615E605D605C601169813C44
:1026C000214311615860FFF7DBFFF8BDFC000050AB
:1026D0000002005008B5FFF7DBFFFFF765FF08BDFC
:1026E000F8B56B4D0021281C382206F06DFC694EB0
:1026F00000213822301C06F067FC674C0021201CAA
:10270000382206F061FC654F38220021381C06F0A3
:102710005BFC281C624906F09DFCFA235B00AB6061
:102720002D3BFF3BEB60643B2B61633B6B615D4B7F
:10273000201C6B6280235B00AB620023EB625A4B70
:102740005A49AB618023EB617E3B2B62584B6B6334
:1027500006F080FC0523A360033BE360013B23619B
:102760006361544B102563620023E362524B53496B
:10277000A3618023E3617E3B23624D4B301C5633C3
:10278000A562636306F066FC0523B360043B336116
:1027900073614B4B201C73620023F362494B4A491F
:1027A000B3618023F36100233362484BB5622D335C
:1027B000736306F04FFC64238022BB60323BFB60F6
:1027C000283B3B61093B7B618033FF33BB62013BAC
:1027D000FF3BFB613E4B3F4C3F4D023300219200DB
:1027E00030487B637C62BD6106F0EEFBC0220021B5
:1027F0009200201C06F0E8FB002120222D4806F064
:10280000E3FB002120222E4806F0DEFB802200217F
:102810009200281C06F0D8FB00218022224806F0F6
:10282000D3FB802200215200234806F0CDFB8022FA
:1028300000215200234806F0C7FB802200215200ED
:10284000264806F0C1FB264B264A1C605A60264AE1
:1028500018489A600023134A19495C0013538024D6
:1028600001336400A342F8D10023802424015A00DC
:102870001C1901338452102BF7D100238020000152
:102880005A00181801338852102BF7D10020F8BDD8
:10289000C8110020541000201C1000200017002038
:1028A000A19400009C0B00209C0F0020A594000028
:1028B000380000205C0B002000160020AA940000C5
:1028C0007C0B002000120020AE940000B800002015
:1028D00038010020001300209C0D0020C8100020AB
:1028E0001C0A0020001400200015002013B5104C15
:1028F0000021201C3C2206F067FB0E49201C0B1C0B
:1029000048331A880B1C4B3109784A331B780091E5
:10291000094900F0EDF98023DB01E360074B00205B
:10292000236190231B02A362054BE36216BDC046E0
:102930008C10002038170020F091000080830000E8
:1029400080D3000038B52C4C5822201C002106F002
:102950003BFB201C294906F07DFB2949294806F04C
:1029600079FB2949294806F075FB294D2948291C7E
:1029700006F070FB291C284806F06CFB231C274A34
:1029800048331A80231C0C224A331A70231C9218D5
:102990004B331A70231C013A50331A70231C233214
:1029A00051331A70231C123A52331A70231C00251B
:1029B00053331D70231C203A4C331A70231C184AC1
:1029C00054331A800122174B56342380164B52423F
:1029D0009A65164B164A1D77DA60164ADD831A612E
:1029E000154A1D625A61154A9D849D629D859A61B2
:1029F000FFF77CFF281C38BD38170020FB93000030
:102A0000B394000060170020B994000068170020FC
:102A1000BF9400007017002078170020DE07000028
:102A2000C4090000D10B0000380100201C0A00205E
:102A3000C81100201C100020001700205410002096
:102A4000F8B500292ED0002A2CD0184B151C1A7866
:102A50000E1C071C012A1AD100241C7001F0C2FDB3
:102A600013491C220B1C38331B785343CB18D868EE
:102A7000201801F079FD0F48FDF722FB80235B0150
:102A8000E418A023DB019C42EAD101F029FE01F009
:102A9000A9FD311C2A1C381C01F0D8FC01F020FED5
:102AA000002001E001204042F8BDC0463806002069
:102AB0008C100020224200000023CA5C002A02D0B1
:102AC000C2540133F9E7181C7047F7B5051C019192
:102AD0000093561E041C092B0CD900980A2103F000
:102AE0001FFB0199031C321C281CFFF7EEFF071C7B
:102AF0002C1808E0671B002E05DD6B461B79013E94
:102B000023700134F6E700980A2103F08FFB30317F
:102B1000781C2170FEBDF8B50C1CD9175F18051C78
:102B20004F40561E092F12D9381C0A21002B03DAF8
:102B300003F0F6FA434202E003F0F2FA031C281C09
:102B4000211C321CFFF7E7FF041C2D1814E0002B9A
:102B500000DA961E2A1CB11A6918002902DD1470C9
:102B60000132F8E7F443E41734402D19002B03DA5F
:102B70002D2301342B700135381C0A2103F056FB3C
:102B800030312970601CF8BDF7B5089F1E1C051C6C
:102B9000013A3B09041C002B05D00093331CFFF7BE
:102BA000F3FF2C1806E0601B002A03DD2170013AB8
:102BB0000134F8E70F233B40092B01D8303304E000
:102BC000002E01D0373300E0573301302370FEBDB3
:102BD000F0B5041C85B00F1C161C002801D0002283
:102BE000027000253278002A05D10023BD426FD241
:102BF0002370281C72E0BD42F7D2252A02D001368C
:102C0000227004E07178252904D121700236013543
:102C10000134E7E7302903D0721C0392202101E040
:102C2000B21C0392002230267642B4460398007804
:102C300084446646092E08D80A26724382180398EF
:102C4000303A0130D2B20390EDE7AE18BE4201D95E
:102C50007A1BD2B269281AD00CD863282FD06428E6
:102C600015D0582838D1181D1B68061C0093201C4D
:102C7000012321E0752811D0782817D073282BD193
:102C80001A1D201C1968161CFFF716FF0CE0181DF2
:102C9000061C1B68201CFFF73EFF05E0181D061CE4
:102CA0001B68201CFFF711FF331C0CE0181D1B686C
:102CB000061C0093201C0023FFF766FFF4E70120A9
:102CC0001A7804332270039E241801362D1889E7E0
:102CD000013C2370681E01E00120404205B0F0BDB8
:102CE00010B50C1C131C6421221CFFF771FF10BDD2
:102CF0000EB403B503AA02CA0192FFF7F1FF02B0B6
:102D000008BC03B01847000070B58026064D760554
:102D1000AC683443AC60C024240323431943034B01
:102D200008439864DA6470BD0002005000000E4051
:102D3000034A044B916C0B40184390647047C046A3
:102D400000000E40FFFFF3FF642310B5181A88B08F
:102D5000052103F075FA3C220321C31C02A802706E
:102D60004270C33282708122994200DB7E3242542B
:102D700001311829F7D100246822009401947F239F
:102D8000FEF75EFB201C08B010BD000030B599B006
:102D900003AD81215222281C06F016F95D22FF2383
:102DA0006A442B7013700E4B2421586B9B69C0181A
:102DB00003F046FA0123834206DAFF22D90700D442
:102DC0007E3AEA540133F6E70024281C009401946B
:102DD0005221221C5123FEF733FB201C19B030BDB9
:102DE0008C10002070B5041CC14D0021281C40220D
:102DF00006F0EAF8201C20382B1C5C285ED803F073
:102E000085F980055D005D005D005D005D005D0091
:102E10005D005D005D005D005D005D0087002205D6
:102E20006105AA00ED00F800280152017901A20114
:102E3000D701ED01280211055D005D005D005D0018
:102E40005D005D005A02900209032C037A03D3034C
:102E50005D005D0061005D005D000F0427045D0002
:102E60005D005D005D0055045D009204AD045D00F1
:102E70005D005D005D005D005D003F055D005D0083
:102E80005D005D005D005D005D005D005D005D005A
:102E90005D005D005D005D005D005D005D00DF04C4
:102EA000B2045D005D005D005D005D005D005D00E1
:102EB0005D005D005D005D005D002F05012040426A
:102EC00000F020FD0322291C2A7108316A71AA71C1
:102ED0006A72AA72EA72FC32CA77291C281C28314D
:102EE0000A70C02134300170281C35300170281C54
:102EF00036300170281C39300170281C3A300170BE
:102F0000281CEA712A72EA752A763B3000F024FC0C
:102F10008022691D2A756A75AA75EA752A766A760D
:102F2000AA76EA762A777F3ACA77A91DCA77E91D79
:102F3000CA77291C0831CA77291C28310A70291C34
:102F400029310A70291C2A310A70291C2B310A7078
:102F50002C3300F0D5FCFF226A70AA70FC3A0321E2
:102F6000995401320D2AFAD1F232991CCA77D91C30
:102F70005A739A735A749A745A779A77CA77191C43
:102F80002D310A70191C2E310A70191C31310A704A
:102F9000191C32310A70191C3F3A33310A70191C5E
:102FA00034310A70191C35310A70191C36310A7017
:102FB000191C37310A70191C38310A70191C393143
:102FC0000A70191C3A310A70191C3B310A70191C1D
:102FD0003C310A70191CFF223D3164E3291CFF2299
:102FE0002B310A70291CEA722A73EA762A772C316F
:102FF000D5E201220321995401320D2AFAD1F2328D
:103000005A739A73FE3A80209918013208740E2A76
:10301000F9D1F132991CCA77D91C5A779A77CA77B5
:10302000FC3A111C01202031121858540F2AF8D1F3
:10303000191CF03231310A70191C32310A70FC3A15
:10304000111CC0203031013258540F2AF8D100F041
:1030500058FC01220321995401320D2AFAD1F2328F
:103060005A739A73FE3A80209918013208740E2A16
:10307000F9D10121F1325A779A77081C01222030C8
:1030800089181A540E29F8D1181CF1312D3001700D
:10309000181C2E300170111CC020303101325854E0
:1030A0000D2AF8D196E78021FF22E9742975697508
:1030B000A975E97529766976A976E9762977A91C33
:1030C000CA77E91C6A70AA706A73AA736A74AA74D0
:1030D0006A77AA77CA77FE3A111C012020311218AC
:1030E00058540E2AF8D1191CF1322D3172E0C04625
:1030F00090170020FF2203216A70AA7003225A54FD
:1031000001310F29FAD1F03159749974802099183E
:10311000013208740F2AF9D10121081C0122203044
:1031200089181A540F29F8D1181CF0312D3001706C
:10313000181C2E300170111CC0203031013258543F
:103140000F2AF8D146E7FF2203216A70AA700322F2
:103150005A5401310F29FAD1F031597499748020F1
:103160009918013208740F2AF9D1F032991CCA77E4
:10317000D91CCA77FC3A111C01202031121858546E
:103180000F2AF8D1191CF0322D310A70191C2E317A
:103190000A70191C31310A70191C32310A70FC3A5C
:1031A000111CC0203031013258540F2AF8D111E7D8
:1031B000FF226A70AA70FC3A0321995401320D2A49
:1031C000FAD1191CF2325A739A735A749A745A7754
:1031D0009A772D310A70191C2E3161E2FF226A7034
:1031E000AA70FC3A0321995401320D2AFAD17D319B
:1031F000F232D974197559759975D9751976597648
:103200009976D9761977991CCA77D91CCA77012182
:10321000181DC177581DC177981DC177D81DC1777A
:10322000181C0830C177181C28300170181C293070
:103230000170181C2A300170181C2B300170181CEA
:103240002C305A739A735A749A745A779A77017019
:1032500095E6FF226A70AA70FC3A03219954013264
:103260000D2AFAD17332FC315973997359749974D8
:1032700059779977DA741A755A759A75DA751A76D4
:103280005A769A76DA761A77FE39081C01222030AF
:1032900089181A540D29F8D1181CF2312D300170FB
:1032A000181C2E300170111CC020303101325854CE
:1032B0000D2AF8D18EE60321FF22E97129727D31B2
:1032C000A975E97529766976691DCA770121281DD6
:1032D000C2770430C177281C28300170281C29309F
:1032E0000170281CAC1DE1772A30EC1DE1770170DC
:1032F000291C2B310A70291C2C310A70291C3231EF
:103300000A70291C33310A70291C3C316A71AA7178
:103310006A72AA722A756A75AA76EA760A703D33CD
:10332000EEE20322FF210F20EA702A716A71AA716E
:10333000EA712A726A72AA72EA727D32DA741A75B6
:103340005A759A75DA751A765A769A76DA769A1CDA
:10335000D1770122F0246970A97028733C25DE1C06
:10336000F1771E1DF2775E1D597499745D739C731D
:10337000DC731C775D779877D877F2779E1DF277AC
:10338000DE1DF2771E1C0836F2771E1C28363270BE
:103390001E1C293632701E1C2A3632701E1C2B361B
:1033A00032701A1C2C3210701A1C2D3215701A1C17
:1033B0002E3214701A1C2F3214701A1C31321170F4
:1033C0001A1C32321170191CC02233310A70191CB8
:1033D00034310A70191C35310A70191C36310A70E3
:1033E000191C37310A70191C38310A70191C39310F
:1033F0000A70191C3A310A70191C3B310A705A19AB
:1034000014701A1C3D3215701A1C3F333E32107076
:10341000187076E2FF22EA702A71FA3A0321995471
:1034200001320F2AFAD1F032191DCA77591DCA7715
:10343000191C33310A70191C34310A70191CDA74E2
:1034400035311A753F3A0A70191C36310A70191C49
:1034500037310A70191C3831A5E10321FF223C24C1
:10346000F020E97029716971A971E9712972697295
:10347000A972E9720C31EA77AA706A74AA74AA7701
:1034800029736C73A873E8736A700235EA77DD1CE0
:10349000EA771D1C2E352A701D1C2F352A701D1C25
:1034A00031352A701D1C32352A701D1C3F3A3335C8
:1034B0002A701D1C34352A701D1C35352A701D1CC0
:1034C00036352A701D1C37352A701D1C38352A7078
:1034D0001D1C39352A701D1C3A352A701D1C3B35C0
:1034E0002A701A1910701A1C3D3214701A1C3E32C0
:1034F00011703F3392E0FF226A70AA70FC3A0321F8
:10350000995401320D2AFAD17332FC31DA741A75EA
:103510005A759A75DA751A765A769A76DA761A772D
:103520009A1CD177DA1CD1770122181DC277581D59
:10353000C277981DC277D81DC277181C0830C27791
:10354000181C28300270181C29300270181C2A30F0
:103550000270181C2B300270181C2C3002701A1CC0
:10356000313211701A1C3232117059749974191C4D
:10357000C02233310A70191C34310A70191C3531DC
:103580000A70191C36310A70191C37310A70191C5F
:1035900038310A70191C39310A70191C3A310A7015
:1035A000191C3B310A7059E1FF226A70AA70FC3A7B
:1035B0000321995401320D2AFAD17332FC31DA74A5
:1035C0001A755A759A75DA751A765A769A76DA767F
:1035D0001A779A1CD177DA1CD1770122181DC2778D
:1035E000581DC277981DC277D81DC277181C0830A5
:1035F000C277181C28300270181C29300270181C61
:103600002A300270181C2B300270181C2C300270EB
:103610001A1C31325974997411703233197070E177
:10362000FF22A91CCA77E91CCA77291C31310A700C
:10363000291C32316A70AA706A74AA740A70FC3A42
:10364000111CC0203031013258540F2AF8D158E1F2
:103650000F21FF22E9702971E97229736975A97533
:103660006976A976A91CCA77E91CCA77291C2D316D
:10367000F0200A70291C6A70AA706871A8716872BB
:10368000A8726A73AA736A74AA74E87528766A774E
:10369000AA772E310A70191C31310A70191C323187
:1036A0000A70191C3D310A703E3329E1FF226A700D
:1036B000AA70FC3A0321995401320D2AFAD17D31C6
:1036C000F232D974197559759975D9751976597673
:1036D0009976D9761977991CCA77D91CCA770121AE
:1036E000181DC177581DC177981DC177D81DC177A6
:1036F000181C0830C177181C28300170181C29309C
:103700000170181C2A300170181C2D300170191C12
:103710002B310A70191C5A739A735A749A745A7717
:103720009A772C31B6E7022103225A5401310F292E
:10373000FAD159709973191CFC320831CA77191CD7
:10374000181C28310A70C02136300170181CDA713B
:103750001A72DA751A76393001708CE0FF226A70BD
:10376000AA70FFF702FC0321F02229726A70AA7086
:10377000EA702A7169720F32A972E972297369734A
:10378000A973E91DCA77291C0831CA77291C36316B
:103790000A70291C37310A70291CAA71EA71AA75AE
:1037A000EA7538313F3A0A70191C39310A70191C10
:1037B0003A310A70191C3B310A70191C3C316FE711
:1037C00003212C1C29726972A972E9722973697329
:1037D000A9737D31283429766976A976E976297727
:1037E0007F3921702C1C293421702C1C2A34217023
:1037F0002C1C2B3421702C1CF0222C346A70AA70E3
:10380000EA702A7121700F32E91D281CCA77291C21
:1038100008303631AA71EA71AA75EA75C2770A7062
:1038200037336DE00F22291CEA7508312A766A7653
:10383000AA76E132CA77291C28310A70291C29315D
:103840000A702A335CE0291C06223931281C0A70D0
:103850000F213A300170281C3B3001703C334FE09F
:10386000291CFF220831CA77291C2831EA712A72E3
:10387000EA752A760A70191C37310A7038333FE02E
:1038800003240C203021C0222C7068702C756875C0
:10389000A970EA70A975EA7528352C701D1C2935A8
:1038A00028701D1C2A3529701D1C2B352A701D1CE3
:1038B0003C352C701C1C3D342070181C3E300170AF
:1038C0003F331DE03020C0240C2103222C73687389
:1038D0002C766876A973EA73A976EA760535EC77D3
:1038E0009D1DE877DD1DE9771D1C0835EA771D1859
:1038F0002C701C1C31342070181C32300170333392
:103900001A70002070BDC046202313B50B4C2360F5
:1039100063606033A360FFF739FA094B1868FFF75B
:1039200013FA02222368009203320192013BA1683C
:1039300000220448FDF784FD002016BD4C0A00203B
:10394000440A0020C594000008B5FFF71FFA034B96
:103950001868FFF7F9F9002008BDC046440A0020A6
:1039600008B5FFF713FA034B1868FFF7EDF90020CD
:1039700008BDC046440A00201E2313B50C4C23602A
:10398000023363605833A360FFF700FA094B1868ED
:10399000FFF7DAF902222368009203320192013B19
:1039A000A16800220448FDF74BFD002016BDC0466B
:1039B0004C0A0020440A0020459500001E2313B540
:1039C0000C4C2360023363605833A360FFF7DEF9C9
:1039D000094B1868FFF7B8F90222236807480092DC
:1039E00003320192013BA16800227830FDF728FDE7
:1039F000002016BD4C0A0020440A00204595000016
:103A0000202313B50C4C236063606033A360FFF781
:103A1000BDF90A4B1868FFF797F902222368084896
:103A2000009203320192013BA16800227030FDF741
:103A300007FD002016BDC0464C0A0020440A0020A5
:103A4000C59500001E2313B50C4C23600233636040
:103A50005833A360FFF79AF9094B1868FFF774F918
:103A6000022223680748009203320192013BA168B9
:103A700000227030FDF7E4FC002016BD4C0A002047
:103A8000440A0020459600002023F0B51E25022799
:103A900005262D4C85B0636058332560A360FFF781
:103AA00075F92A4B1868FFF74FF9236828480097E3
:103AB00001961D332A1C6830A168FDF7C1FC254B17
:103AC000251C1B68012B0CD1236823481A1C1D32AE
:103AD000D31800970196013BA1686030FDF7B0FC58
:103AE0002FE023681D481C1C1D340393009701968A
:103AF000E318013B5830A968221CFDF7A1FCE868D7
:103B0000032819D8039F164E2C3702F0F5FA020449
:103B100006085C2004E07C2002E02F2000E02D203D
:103B2000FFF760F90223009303330193301C402117
:103B3000221C3B1CFDF784FCEB685A1C032313403A
:103B4000EB60002005B0F0BD4C0A0020440A0020C4
:103B5000C59600000000002045970000C5970000B2
:103B60009017002073B5534C00210822201C05F04B
:103B70002BFAFFF70BF9504B1868FFF7E5F84F4B9E
:103B80001868082800D992E002F0B6FA050A17264C
:103B90002B505F717700FFF7B7FE201C48494EE0BD
:103BA0004849201C0B1C48331A880B1C4B310978E0
:103BB0004A331B78009144490BE04249201C0B1CFE
:103BC00050331A780B1C5231097851331B7800910D
:103BD0003E49FFF78DF84EE03D4B201C3D491A68E9
:103BE00042E03D4B00255D5F3C4B9D4202DD201CC9
:103BF0003B4903E0002D04DA201C3A4905F02AFA7B
:103C00000EE00A21281C02F01BFB0A2106B2281C28
:103C100002F0FCFB201C0BB2321C3349FFF768F8A2
:103C2000201C05F01FFA6F2323540AE02F4B201CA1
:103C30001A782F49C72A02D8002A04D12D4905F045
:103C400009FA20251CE02C490EE02C4B00229A5E3C
:103C50002B4B9A4202DD201C2A49F0E72A4B201CFC
:103C60002A499A42EBDB2A49FFF742F8E9E7201C90
:103C7000284905F0EFF9002502E0FFF705FF16E0FF
:103C80000026A05D002812D0FFF7ACF800280AD16A
:103C900002230093033301932B1C1F4840212A1C4D
:103CA0000F33FDF7CDFB103501367F2DE9D900200C
:103CB00076BDC046D0170020440A002090010020A5
:103CC00095980000381700209A980000A7980000E7
:103CD0003C0A0020B6980000400A0020890200003B
:103CE000BA980000C0980000C5980000380A00206B
:103CF000CD980000D1980000D49800003A0A002026
:103D000010270000D8980000F0D8FFFFDF980000CF
:103D1000E6980000551700209017002008B5FDF721
:103D200029FB002008BD0000F7B5234C234920687B
:103D3000FCF76EFF2068FCF7B7FF214E7721F422D5
:103D4000B6233068FDF718F81E48FCF7B9F930685B
:103D50007721D022FDF706F8071E552F28D1002322
:103D6000194A1A491370019251601948194A990069
:103D700001338850202BF8D1174D00211822281C20
:103D800005F022F9AA23154CAB703068943B7721DB
:103D9000221CFCF7C9FF124B2278617862702170F7
:103DA00002349C42F8D10023019A2B80936001E0F9
:103DB00001277F42381CFEBD14060020A0860100AA
:103DC00014000020B80B00005C0A0020A07931002C
:103DD000CD8B0100D8170020581800205A18002059
:103DE00070180020034B00201A68034BDA60012290
:103DF0009A607047200600205C0A0020F7B5244D29
:103E00007721E022B6232868FCF7B6FF2148FCF7AB
:103E100057F97721F422B6232868FCF7ADFF1E4836
:103E2000FCF74EF928687721D022FCF79BFF071E8C
:103E3000552F29D10023194A194913700192516055
:103E40001848194A990001338850202BF8D1174E91
:103E500000211822301C05F0B7F8AA23144CB370C7
:103E60002868943B7721221CFCF75EFF114B2278D7
:103E700061786270217002349C42F8D10023019A6B
:103E800033800133936001E001277F42381CFEBD7F
:103E90001400002010270000B80B00005C0A00206E
:103EA000A0793100CD8B0100D817002058180020D0
:103EB0005A18002070180020F0B57B4C85B0A3681C
:103EC000002B00D1EDE07948FCF7FAF8784A136846
:103ED000E1685B1A012B00D8E3E01368754FE360DB
:103EE000F42303AC744D2370C63B221C637077210E
:103EF0002C3B38682E88FCF7F9FE7048FCF7E0F898
:103F0000F623221C237038687721F43BFCF70CFF62
:103F1000237862781B029B180093F4232370B3016B
:103F20003433221C6370772138680223FCF7DEFEED
:103F30000123701C8340181C614B01305843FCF76F
:103F4000BFF8F623221C237038687721F33BFCF777
:103F5000EBFE08222378921B18046378A4781B02D6
:103F6000C3181C1914410194AF89009BDF1B6B8996
:103F70005F431423E85E1623E95EFF137918C0023D
:103F800002F05EF93818031C4E4A08331B111380E7
:103F90004D4B06216A5EC018031C42434343511334
:103FA0000E27EA5F1B135A4312148A18802102322B
:103FB000090292105218298951430222AF5E10243F
:103FC0002A5FBF00534304242A5FDB125043C2120E
:103FD0009B18F818B040019B02308010181A3B4B18
:103FE000C90B33415843002803DB400002F098F826
:103FF00002E002F095F84000C3105B43344A354CB0
:1040000053431914344B43431A148B18334A9B18E7
:10401000254A1B111178C01889000D595168491B98
:10402000516051684318536013789B0018511378FE
:104030000133DBB213701F2311780B4013705068EB
:10404000400903F085F8264902F0E0FB254901F01C
:104050006DF904F0B1FE021C0B1C0020224904F093
:10406000BFFA0022214B04F021F804F0F9FE0021F0
:10407000041C02F03BFA002807D0201C04F09CFE30
:1040800000221B4B03F0ACF806E0201C04F094FE69
:104090000022174B04F0A4FA04F01CFE154B80B26A
:1040A0001880002005B0F0BD5C0A00201027000039
:1040B000200600201400002058180020881300005B
:1040C000DC050000400A002060F0FFFF50C3000044
:1040D000DE0B0000D817002043E3FFFFCF0E0000E7
:1040E00080E6C547AEDC423E0000F03F40A5E5401B
:1040F0000000E03F3A0A002008B5A0230020084A4B
:10410000DB051A630821021C031CFEF7FDFD7F225C
:10411000C020044B0003DA64FEF70AFE002008BD4D
:104120001111110100000E4001211D4B10B59A6CB8
:104130000A43191C9A644A6E194BD207FBD59A6D33
:10414000D203F8D580249A6C240122439A64012278
:104150008C6D134B1442FAD09A65996C114A0A403F
:104160009A649A691205120D02601A681205120DFE
:1041700042605A681205120D8260DA681205120D4B
:10418000C2601A691205120D02619A685B69120514
:104190001B05120D1B0D42618361002010BDC0463E
:1041A00000000E40FFF7FFFFF0B5E12787B00023C6
:1041B0006A460326A0247F02029303930493537557
:1041C00000970196E405626B134B144D1340CC220B
:1041D000D205134363632868694600F09FFF0028F7
:1041E00015D16B4602905875039004900097019684
:1041F000A26B0B4B68681340882252031343A363DE
:10420000694600F08BFF002803D0022000E0012067
:10421000404207B0F0BDC046FFFFFF88C805002040
:10422000FFFF88FF08B5031C0A1C03490868191C16
:1042300000F0FCFF08BDC046C8050020704770476D
:10424000FEE70000002208B50A4B0B49D3188B4249
:1042500004D20A49895804321960F5E7084B094A23
:10426000934202D2002204C3F9E7FEF733FAFDF7C6
:104270003BFF08BD00000020DC050020F09A000094
:10428000DC05002070180020F0B53B4B3B4D0024AE
:104290002B6004233A4EA5B00293311C1C33201C22
:1042A00003936C600194FCF72DFC01A9286800F0D1
:1042B000DDFA08222868311CC3689343C360221CBE
:1042C00000F0C4FB311C221C286800F0BFFB8026D4
:1042D000071C211C321C04A804F076FE3A1C294954
:1042E00004A8FEF705FD04A804F0BCFE011C04A808
:1042F000FFF798FF211C321C04A804F065FE286813
:1043000000F072FB2049021C04A8FEF7F1FC04A88F
:1043100004F0A8FE011C04A8FFF784FF211C321C36
:1043200004A804F051FE286800F0E0FB1749021CC5
:1043300004A8FEF7DDFC04A804F094FE011C04A808
:10434000FFF770FF211C321C04A804F03DFE286812
:1043500000F0D8FB0E49021C04A8FEF7C9FC04A813
:1043600004F080FE011C04A8FFF75CFF286800F041
:1043700009FB201C25B0F0BD000003406C0A0020A2
:1043800080841E00EC980000049900001C99000035
:10439000349900000021012270B5284C8AB02068B1
:1043A00001910368251C134212D01F3202A804F0A9
:1043B0000BFE2349626802A8FEF79AFC02A804F0EB
:1043C00051FE011C02A8FFF72DFF0120404232E000
:1043D0000321C3688B431343C3608D310822FCF76C
:1043E0004BFB2068012301681940FBD11822FCF720
:1043F00043FB28680368DB07FCD412491022FCF752
:104400003BFB2868012604683440FBD101A90D4A12
:10441000FCF743FB2A680C49D36802A8B343D36076
:10442000019AFEF765FC02A804F01CFE011C02A81C
:10443000FFF7F8FE201C0AB070BDC0466C0A0020D1
:104440004C990000FFFF000065990000454BF7B54F
:104450001B681C68E40700D581E000297FD0141890
:104460000194041C019DAC4277D00327F826DD6837
:10447000BD43023F3D43DD601D68B543B83E354353
:104480001D6006251D621D682F431F6001271D68E2
:104490003D42FBD10326DD68BD43DD60DD68B543E9
:1044A0003D43DD601D68F536B543B83E35431D60BC
:1044B00002251D621D682F431F6001271D683D42B4
:1044C000FBD1F8261D68B543383E35431D601C629C
:1044D0001D682F431F6001271D683D42FBD1F82650
:1044E0001D68B543B83E35431D600D1A2D5D1D6234
:1044F0001D682F431F6001271D683D42FBD1032625
:10450000DD68BD43DD60DD68B5433D43DD601D68AA
:10451000F536B543B83E35431D6005251D621D685F
:104520002F431F601D68ED07FCD4F8271D68BD43AD
:10453000B83F3D431D60FF2501271D621D683D43B7
:104540001D6001271D683D42FBD11D693D42F2D12E
:10455000DD68E419BD43DD6084E7101C01E0012043
:104560004042FEBD6C0A002070B501261B4C22683B
:10457000136833422FD10321D368051C8B43334387
:10458000D360101C49180822FCF776FA2068012233
:1045900003681342FBD10321C3689343C360C3681C
:1045A0008B431343C3601D310732FCF765FA206863
:1045B0000368DB07FCD40A4918222940FCF75CFA9F
:1045C000236801201A680242FBD1DA688243DA606C
:1045D0001B68184000E00120404270BD6C0A0020BA
:1045E00000F0FF000321F8203C4B1B68DA688A4387
:1045F00002390A43DA601A688243B83802431A6003
:1046000006221A621A680A431A6001211A680A42CD
:10461000FBD10320DA688A43DA60DA6882430A430E
:10462000DA601A68F5308243B83802431A605022C3
:104630001A621A6811431960012219681142FBD1EC
:104640000320D9689143D960D96881431143D96067
:104650001968F5308143B838014319601A62196846
:104660000A431A6001211A680A42FBD1F8201A682D
:104670008243B83802431A6019621A680A431A6002
:1046800001211A680A42FBD1F8201A688243B8381F
:1046900002431A6082221A621A680A431A600121D0
:1046A0001A680A42FBD10320DA688A43DA60DA68C2
:1046B00082430A43DA601A68F5308243B83802430D
:1046C0001A6004221A621A681143196001211868DD
:1046D0000840FBD1DA688A43DA6070476C0A002030
:1046E0000321F8203C4B1B68DA688A4302390A43ED
:1046F000DA601A688243B83802431A6006221A62E6
:104700001A680A431A6001211A680A42FBD1032081
:10471000DA688A43DA60DA6882430A43DA601A6840
:10472000F5308243B83802431A6050221A621A6880
:1047300011431960012219681142FBD10320D96885
:104740009143D960D96881431143D9601968F53024
:104750008143B838014319601A6219680A431A6024
:1047600001211A680A42FBD1F8201A688243B8383E
:1047700002431A6019621A680A431A6001211A6812
:104780000A42FBD1F8201A688243B83802431A6003
:104790001C221A621A680A431A6001211A680A4226
:1047A000FBD10320DA688A43DA60DA6882430A437D
:1047B000DA601A68F5308243B83802431A6004227E
:1047C0001A621A6811431960012118680840FBD168
:1047D000DA688A43DA6070476C0A00200C4B984212
:1047E00004D180210B4A490193680EE00A4B98429C
:1047F00004D18021074A8901936806E0074B98425B
:1048000005D18021034AC90193680B439360704727
:1048100000000340000200500000134000000D4063
:104820000B4B984203D10B4A0B4B91680CE00B4B9E
:10483000984203D1074A0A4B916805E0094B984218
:1048400004D1044A084B91680B4093607047C046FE
:104850000000034000020050FFEFFFFF0000134084
:10486000FFDFFFFF00000D40FFBFFFFF274B10B52C
:10487000984209D1A0238024DB05DA686401224331
:10488000DA60DC68224A18E0224B984209D1A02362
:104890008024DB05DA68A4012243DA60DC681E4A62
:1048A0000BE01E4B98422ED1A0238024DB05DA6852
:1048B000E4012243DA60DC68194A2240DA60194ACE
:1048C00001230468234003D0013A002AF8D11AE0FA
:1048D0008A68202A00D18B60F82403688A68A34381
:1048E000D2001343036002680F4B13400A6813435E
:1048F00008220360C3681343C36002680B4B134074
:104900004A6813430360002010BDC0460000034006
:10491000FFEFFFFF00001340FFDFFFFF00000D402F
:10492000FFBFFFFF01000100FFFFFBFFF9F7FFFFE3
:10493000094B984202D18022D2010AE0074B9842EB
:1049400002D18022120204E0054B984203D180225A
:104950005202044BDA677047000003400000134026
:1049600000000D4004E100E00B1C203B5A1E934167
:10497000F8225B4219400368C90093431943016060
:104980007047000002680B4B134003600A4B9842CB
:1049900002D18022D2010AE0084B984202D1802243
:1049A000120204E0064B984203D180225202054BCA
:1049B000DA677047FFFFFDFF00000340000013406F
:1049C00000000D4004E100E003690B60022A01D100
:1049D00043694B60101C70470B680362022A01D1C7
:1049E0004B684362101C7047124A08B5124B904244
:1049F00003D19A6980235B0309E0104A904203D1F6
:104A00009A6980239B0302E09A698023DB031340A9
:104A100002D1FCF7EBFA0CE0094A0A499A180A425B
:104A200003D08022D203934202D1FCF705FB00E0C1
:104A3000054808BD0000034000020050000013407C
:104A40000000F0FFFFFFEFFF001BB700F7B5051CEC
:104A50000091171CFFF7C8FF061C002F18D0391C47
:104A600001F05EFB01304008441EFF2C00D9FF24FA
:104A7000631C5900301C019301F052FBB84200D96D
:104A8000019CAA68184B240413401C43AC6005E049
:104A9000FF22381CAB6812041343AB60009B002B51
:104AA0001DD0301C191C01F03BFB44087F2C03D89F
:104AB000301C002C05D000E07F246100301C01F088
:104AC0002FFB009B984204D901346100301C01F097
:104AD00027FBFF22AB6893431C43AC6003E0FF223B
:104AE000AB681343AB60FEBDFFFF00FF10B5041CB5
:104AF000FFF77AFFA168C9B2002902D0400801F08F
:104B00000FFB10BD10B5041CFFF76EFFA168400835
:104B10000902090E013101F003FB10BD10B54C1E56
:104B2000A141C900002A01D004221143002B01D069
:104B3000022319431E22036893431943016010BDE9
:104B400070B50E1C0A25041CFCF776FAB100684308
:104B500001F0E6FA291C053001F0E2FAA0230D4A23
:104B60000138DB05944207D18021DA6889000A43C5
:104B7000DA60D968084A06E08021DA6849000A4309
:104B8000DA60D968054A0A40DA608123E060236070
:104B900070BDC04600001240FFFDFFFFFFFEFFFF9B
:104BA0008022036813430360064B984202D180229F
:104BB000D20204E0044B984203D180221203034B3B
:104BC0001A607047000002400000124000E100E05F
:104BD000064A074B904203D180219A68890002E07F
:104BE00080219A6849000A439A6070470000124089
:104BF00000020050002070474021034A00209368C3
:104C00000B4393607047C0468040005000230C4A1D
:104C10001360D36053601361936053619361936237
:104C2000D361D3621362136353625363111C002078
:104C3000383158500433202BF8D12B33936570470B
:104C4000740A00201C4B30B59A685C68C1105A6029
:104C500042118A188011196910184D101C60986053
:104C6000D960001B4C1189105A696918611A4018E3
:104C70005110511894101A61091912118A1A8018CA
:104C8000DA6B58619A631A6CDA635A6C1A649A6C1C
:104C90005A64DA6C9A641A6DDA645A6D58651A654A
:104CA0000022101C191C3831515804324018202A97
:104CB000F8D10430C01030BD740A0020F0B5434C68
:104CC00085B0E26D071C0125904202DC00DB002567
:104CD0006D42A369E1695E18236AF618636AF618E3
:104CE0000236B3100193236E5942394B8D420CD1D9
:104CF000002D04DA19688A4207DD1F6005E0002DE7
:104D000003DD59688A4200DA5F601A685B68D61A68
:104D1000301C04F015F802900391019804F010F88B
:104D200000222C4B03F0C2F90B1C021C02980399C1
:104D300001F0A2FB254B284900281DD008685A6EB7
:104D4000904201D9086801E008680138821AE06AD7
:104D5000A062206BE062606B6263E2692063A26123
:104D6000226A1E48E261626A66622262184A106024
:104D70001B4850600A6862660A68596E521AC82A4F
:104D800006D9DA699A611A6ADA615A6A5E621A6247
:104D9000DF65002D00D01D66E26AA36A11489918EC
:104DA000236BC918636BC9180231891001F048FAE6
:104DB000A36D1A1C0F3A904204DD1E32904201DAB4
:104DC000031CA065181C05B0F0BDC046740A002085
:104DD000D00500200000E03F2006002000F0FFFF8B
:104DE000FF0F0000B80B0000044B054A5A605A60E0
:104DF0005968C903FBD500207047C04600800040B9
:104E000065A90000FA2302219B0082B001930B4B9D
:104E10001A680A431A60019A511E0191002AFAD1B8
:104E200002219A680A439A60054B064A1A601A687A
:104E3000012AFCD1002002B07047C0460002005099
:104E4000008000405713EBA5FA23F0B59B0087B014
:104E50000593041CFFF7C8FF4B4B18601B68092023
:104E60000093002B00D08CE02378484D0126002BC6
:104E70000BD1FFF7B9FF6B69B3436B616378022B0A
:104E800008D1E3681433E36004E0FFF7ADFF6B691A
:104E900033436B613E4AA6699446E369301C634420
:104EA0000A21019301F03CF90A210303301C02930B
:104EB00001F0BCF96769029B0E02381C0A211E43EF
:104EC00001F0B4F9381C0E430A2101F029F9000160
:104ED00006430A21019801F023F9000506430A213F
:104EE000019801F0A3F9284F09040E433E60FFF733
:104EF0007BFF01226B690A2113436B613B682B61C5
:104F0000E668301C01F00CF903050393A368301C1C
:104F1000019363680A21029301F088F9039B0E0450
:104F200002980A211E4301F081F901980E430A21DB
:104F300001F0F6F8000306430A21019801F076F922
:104F400009020E4302980A2101F0EAF80001064323
:104F50003E60FFF749FF08223B68EB60236901349C
:104F6000AB612B6B93432B63E17F2B6B002900D04C
:104F70000092009A1A432A630598431E059300285D
:104F8000FAD107B0F0BDC046DC0A00200080004026
:104F900030F8FFFFF0B501240723F0273D4A3F0317
:104FA00055692540057091690B40036111693A4BC1
:104FB0000902090F596011693940090C996011699A
:104FC000C904C90FD960F021166909010E40360ADB
:104FD0001E611669B606B60F5E610F261169314073
:104FE0009961D1688902890FD961D1680F40F02198
:104FF0003F0C1F62D76809017F047F0F5F62D7688B
:105000003940090A9962D1684906490FD962D268C4
:105010001640FA221E6359689E68D200B6180A220A
:1050200051437118C161D9681E6951438919816161
:1050300059699E69514389194161191C002D18D184
:10504000DB695A430B6AD218C260142A04D90223BE
:10505000143A4370C26000E044700A234A6A8C6AC2
:105060005A4312198260CA6A53430A6B9B18436001
:105070000EE0D9691C6A51430919C160596A9C6ADA
:10508000514309198160D96A1B6B4A43D2184260A7
:105090000020F0BD00800040DC0A002010B5041C98
:1050A000FFF7A2FE002808D10722944207D805493D
:1050B0000B6B934323430B6302E0062000E0101CBC
:1050C00010BDC04600800040044A936A18439062B5
:1050D0008022034B120600201A60704700800040B7
:1050E00000E100E00B4B10B5DC695A69032324058D
:1050F000240F01341340012B04D0022B05D1FBF700
:1051000075FF03E08020000200E00348211C01F04D
:1051100007F810BD00020050001BB700F8B5A0232F
:105120000D1C3349041CDB05324A884207D180201C
:10513000D96840020143D960DE682F4906E080202B
:10514000D96880020143D960DE682C493140D960BA
:105150009368034393600122636813436360636849
:105160009218134363602B691A02EB68DB00134348
:105170006A681343AA6892001343A360236A5B0A18
:105180005B0223622A7D236A13432362FFF7AAFF8F
:105190006B7D071C2D68012B05D18022636A1206E6
:1051A0002D01134302E0636A5B005B086362291C04
:1051B000381C00F0B5FF291C061C381C01F036F81D
:1051C0006D08A942AD410E4B6D42761B9E4205D93A
:1051D0008022636A1206134363623609636AB6B2B9
:1051E0001B0C1B046362636A00201E436662F8BDE9
:1051F0000000054000020050FFFFFEFFFFFFFDFF23
:10520000FF0F000010B58A1891420DD08023DB05F6
:105210008469A40704D5013B002BF9D1012004E0E7
:1052200003680B700131EFE7002010BD10B58A183C
:1052300091420DD08023DB058469A40504D4013B91
:10524000002BF9D1012004E00B7801310360EFE776
:10525000002010BD012130B58024274A6404536822
:105260000B435360254A264913680B4023431360C0
:105270001068244B03408020C00403431360224B7A
:1052800022481D6828408025ED02284318601D68CB
:105290001F48284080256D03284318601D681D485D
:1052A00028408025ED0328431860186801402143F9
:1052B0001960194B194918680140802040010143C9
:1052C00019601868164901408020C0010143154843
:1052D00019600468144921408024E40021430160DE
:1052E00080209968014399608021936889010B436C
:1052F0000020936030BDC0460002005000400050C6
:10530000FFFFFFFCFFFFFFF340400050FFFFF3FFF4
:10531000FFFFCFFFFFFF3FFF80400050FFCFFFFFA9
:10532000FF3FFFFF00410050FFF3FFFFF0B546468F
:105330004F46C0B48BB0051C0C1C00F09FF9002335
:10534000C74F8046FB56061C013304D0201C00F0DA
:1053500043FE002805D1301C0BB00CBC904699468A
:10536000F0BD281C00F038FE8146002833D1201CF7
:10537000002101F0A1F80028EDD001230093B94BE2
:10538000281C01934B46089303F016FD02900391ED
:10539000201C03F011FD0022B34B6E4606920793CA
:1053A0000023FB56049005915A1C0ED0022B0CD002
:1053B000301C00F05FFD002800D1AEE0336A002B06
:1053C00003D003F0FBFD336A0360B069F16903F0B9
:1053D00047FD061CBFE7281C002101F06DF80028DE
:1053E00024D0201C002101F067F8804600285AD004
:1053F000012300939B4B281C01930023089303F087
:10540000DBFC02900391201C03F0D6FC0023002259
:10541000069207930023FB566E4604900591002BDD
:10542000C6D00022904B06920793CEE7404600F08C
:10543000C9FD8146002875D04046002101F03CF8A6
:105440004646002800D186E7281C00F0BBFD4646F2
:10545000002800D17FE7201C00F0B4FD002800D117
:1054600079E7042300937F4B281C019300230893C2
:1054700003F0A2FC02900391201C03F09DFC00238A
:105480000022069207930023FB566E460490059176
:10549000022B76D0684600F0EDFC002871D0336A0C
:1054A000002B92D08DE7201C00F08CFD002800D14D
:1054B00051E7201C002101F005F8002800D14AE73F
:1054C00001230093674B281C01934346089303F084
:1054D00073FC02900391201C03F06EFC3B786E4637
:1054E00004900591002B45D10022002306920793DA
:1054F000301C00F0BFFC0028D1D103F05FFD212358
:105500000360CCE700200021021C0B1C02F090F984
:1055100006900791022C00D04AE703F04FFD2123AB
:1055200003604BE7281C00F04DFD002884D0201CB0
:1055300000F048FD002800D17EE7404600F04CFD19
:105540006E46002822D101230093464B0890281C68
:10555000019303F031FC02900391201C03F02CFC1A
:105560003C7804900591002CCCD1002200230692B7
:1055700007931DE700203D4906900791022BBCD000
:10558000B6E703F01BFD2223036088E703230093A3
:10559000344B281C01934B46089303F00DFC0290FA
:1055A0000391201C03F008FC0023FB560490059196
:1055B000002B19D1E0222E4B1206281C0021069246
:1055C000079300F07FFF002830D10023FB56022B09
:1055D00005D0301C00F04EFC002800D0EEE603F0B1
:1055E000EDFC22230360E9E60022224B281C002167
:1055F0000692079300F066FF0028E6D0FC21201CED
:10560000890501F0F5FA03F0D7FB041C0D1C00F02E
:1056100033FC021C0B1C201C291C00F013FF00286B
:10562000D3D10022114B06920793CEE7FC21201C18
:10563000890501F0DDFA03F0BFFB041C0D1C00F02E
:105640001BFC021C0B1C201C291C00F0FBFE00286C
:10565000BBD1E022084B120606920793B5E7C0467D
:10566000D80500207C9900000000F03F0000F0FF0A
:10567000FFFFEF470000F07FFFFFEFC7F0B54446A4
:1056800056464D465F46F0B44E0087B0051C0C1CD4
:105690008846760811D0FF23470081467F08DB0546
:1056A0009F4204DD654800F0B7FC041C07E09E4201
:1056B0000DDDFE239B059F42F4D1FE24A405201C92
:1056C00007B03CBC90469946A246AB46F0BD0023CD
:1056D000019300286FDBFF23DB059E4260D0FE2391
:1056E0009B059E427CD08023DB05984500D18BE052
:1056F000FC239B05984521D0281C00F05FFCFF236C
:10570000011CDB059F4236D0002F34D0FE239B05C1
:105710009F4230D0EB0F013B1A1C0293019B1343B5
:105720007CD09A23DB059E4200DC95E0444B9F42EF
:1057300029DC4346002B2DDB0024C0E74B46281C08
:10574000002B67DA00F03AFCFF23011CDB059F42C7
:1057500001D0002FDAD13B4B081C9C46019B6744CB
:105760001F435DD0019B0C1C012BA8D180231B067D
:105770009C466444A3E74346002B58DB4B460C1C75
:10578000002B9CDAE7E7304B9F4200DCBDE243464A
:10579000002BD1DD2D48011C01F02AFA041C8EE7F4
:1057A000FE239B059F4200D187E728DD4346002B5F
:1057B00000DB84E7C0E7264B9E421DDC254B9E4262
:1057C0008DDD9623F2159B1A321C1A41111C99404B
:1057D000B14284D101231A4001339B1A01937EE721
:1057E00043462C1C002B00DB69E7FE20291C8005AA
:1057F00001F00CF8041C62E7022301936BE74346B7
:10580000002BB3DB00245AE7281C291C01F0F0F917
:10581000041C54E700F0D2FA041C50E7281C291C91
:1058200001F018FB011C00F0F1FF041C47E7FE200B
:10583000800500F0EBFF011CA0E7C0468099000046
:10584000F7FF7F3F000080C00700803FCAF2497128
:10585000FFFF7F4BFFFF7F3FF14B00229F4207DCA2
:10586000081C9721C90501F0C3F91822071C5242F0
:10587000FB157802FE277F3B9B180393E94B400AF8
:10588000BF050743984200DCAEE1E74B984200DCDD
:105890007CE2039B01330393E44B9C460023674463
:1058A00004939D00E24B381CEB58BB46191C9946EB
:1058B00001F0D0FA49468246381C00F02BFE011C4C
:1058C000FE20800500F0A2FF031C191C5046059322
:1058D00001F08EF980237F109B051F438023DB029C
:1058E0009C46049B67449C46060B674436038046EF
:1058F000391C301C01F07CF9011C504601F0AAFA59
:1059000049468246381C01F0A5FA011C584601F0B0
:10591000A1FA011C301C01F06BF9011C504601F08A
:1059200099FA059901F064F941468346404601F031
:105930005FF9071C391C01F05BF9BE498146381C30
:1059400001F056F9BC4900F0E5FD391C01F050F9B1
:10595000BA4900F0DFFD391C01F04AF9B84900F0FE
:10596000D9FD391C01F044F9B64900F0D3FD391CCA
:1059700001F03EF9B44900F0CDFD011C484601F0AC
:1059800037F9311C071C404600F0C4FD594601F0B0
:105990002FF9391C00F0BEFD311C8146301C01F08E
:1059A00027F9AA49824600F0B5FD494600F0B2FD4C
:1059B000070B3F03391C301C01F01AF9391C061C77
:1059C000584601F015F9A1498346381C01F042FA06
:1059D000514601F03FFA011C484601F03BFA4146AE
:1059E00001F006F9011C584600F094FD8146301C78
:1059F000494600F08FFD070B3F03381C944901F026
:105A0000F7F894498046381C01F0F2F8311C8246C0
:105A1000381C01F01FFA011C484601F01BFA8E49A0
:105A200001F0E6F8011C504600F074FD8B4BE9587C
:105A300000F070FD071C039801F08AFB884B81463B
:105A4000EB5840469A46391C00F064FD514600F080
:105A500061FD494600F05EFD060B36034946301CE9
:105A600001F0F8F9514601F0F5F9414601F0F2F97B
:105A7000011C381C01F0EEF98046019D029B013D9E
:105A80001D4300D0ADE0774F250B2D03291C201CB2
:105A900001F0E0F9311C01F0ABF841468146201CD1
:105AA00001F0A6F8011C484600F034FD291C804690
:105AB000301C01F09DF8061C8246311C404600F067
:105AC00029FD44008146051C6408002800DC05E12E
:105AD0008623DB059C4200DD98E000D187E0FC23B3
