:10000000080400207D02000079020000790200004F
:10001000790200007902000079020000000000006F
:100020000000000000000000000000007902000055
:10003000790200000000000079020000790200004F
:1000400079020000790200007902000079020000C4
:1000500079020000790200007902000079020000B4
:1000600079020000790200007902000079020000A4
:100070007902000079020000790200007902000094
:100080007902000079020000790200007902000084
:100090007902000079020000790200007902000074
:1000A0007902000079020000790200007902000064
:1000B0007902000079020000790200007902000054
:1000C00082B00190019B5A1E0192002B01D0C046C4
:1000D000F8E702B07047000070B5134D134B2A6863
:1000E000134C13408022520413432B602268114B9F
:1000F0001340802252011343236080224026AB68C4
:1001000052011343AB60A3680B48B343A360FFF7EE
:10011000D7FFAA68094B08481340AB60A368334374
:10012000A360FFF7CDFFE8E740400050FFFFFFFC72
:1001300080400050FFCFFFFF58492200FFEFFFFF34
:10014000A0227721D205936B8B4366390B43802124
:100150009363094B49029A680A439A60D969074A2E
:100160000A400321DA615A698A435A616722044BC3
:100170005A6299607047C04600020050FFF0FFFFCE
:1001800000000540104B10B55A6A0020D30319D463
:10019000D404E40F930501349B0F0221834206D05F
:1001A0004918012B03D00431022B00D008313F2322
:1001B0001A40101C054B2030584300F081F8211CD8
:1001C00000F07EF810BDC04600020050001BB700D2
:1001D00007230E4A10B51169141C0B4008D0012BDF
:1001E00008D0022B02D1FFF7CDFF07E0032B04D08C
:1001F000074803E08020000200E006480F23E16981
:100200001940013100F05CF810BDC04600020050FA
:10021000001BB7001027000008B5FFF7D9FF014BFE
:10022000186008BD00000020F8B55926162588245E
:1002300003200C4B0C4A5E605D605C6011680F2708
:100240000143002011605860D169B943D1615E60FB
:100250005D605C601169813C214311615860FFF76A
:10026000DBFFF8BDFC0000500002005008B5FFF7AE
:10027000DBFFFFF765FF08BDFEE70000002208B5C1
:100280000A4B0B49D3188B4204D20A4989580432CD
:100290001960F5E7084B094A934202D2002204C3D1
:1002A000F9E7FFF7E3FFFFF717FF08BD00000020A5
:1002B00004000020E40300000400002004000020EB
:1002C000002243088B4274D303098B425FD3030A95
:1002D0008B4244D3030B8B4228D3030C8B420DD3A8
:1002E000FF22090212BA030C8B4202D31212090236
:1002F00065D0030B8B4219D300E0090AC30B8B4274
:1003000001D3CB03C01A5241830B8B4201D38B0321
:10031000C01A5241430B8B4201D34B03C01A5241C6
:10032000030B8B4201D30B03C01A5241C30A8B4209
:1003300001D3CB02C01A5241830A8B4201D38B02F4
:10034000C01A5241430A8B4201D34B02C01A524198
:10035000030A8B4201D30B02C01A5241CDD2C3090A
:100360008B4201D3CB01C01A524183098B4201D386
:100370008B01C01A524143098B4201D34B01C01A71
:10038000524103098B4201D30B01C01A5241C308E9
:100390008B4201D3CB00C01A524183088B4201D358
:1003A0008B00C01A524143088B4201D34B00C01A44
:1003B0005241411A00D20146524110467047FFE7B0
:1003C00001B5002000F00CF802BDC0460029F7D0AE
:1003D00003B5FFF775FF0EBC4243891A1847C046A4
:0403E0007047C0465C
:0403E400001BB70043
:00000001FF
